:2000000013C0B8C1FDCFFCCFFBCFFACFF9CFF8CFF7CFC7C1F5CFF4CFF3CFF2CF2BC2F0CFD7
:20002000EFCFEECFEDCF0000F894EE27ECBBF1E0FBBFEBBFE5BFF8E1F1BDE1BD8DE0A2E054
:20004000BB27ED938A95E9F780E094E0A0E6ED930197E9F7E6E2F0E085919591009761F031
:20006000A591B59105901590BF01F00105900D920197E1F7FB01F0CFEFE5EDBFE4E0EEBFC9
:20008000C0E6D1E000C049D1EFEFE093620144FE3CC0F894EFEE4E227894E0916D01F091F8
:2000A0006E013197E0936D01F0936E01309709F431D6E0916F01F09170013197E0936F01ED
:2000C000F0937001309709F42CD632D649F0E0916B01F0916C013197E0936B01F0936C01C3
:2000E0002DD629F0E0916801E150E0936801E6D1E0936201A0916201A13129F481D222D6A2
:20010000E0E0E093630191D1DDD2A0916201A13009F41CD6A0916201A23121F458D1FA93B1
:20012000EA932DD1E0916301E03001F514D6E9F016D611F401E20DC0E43011F402E209C03F
:20014000E83011F403E205C0E03211F404E201C00FEF0F3F51F007D6E0936001F0936101F7
:20016000E4E004D6E1E0E0936301C5C0E13031F5F2D519F1F4D511F401E40DC0E43011F423
:2001800002E409C0E83011F403E405C0E03211F404E401C00FEF0F3F81F0E0916001F09117
:2001A0006101FE2FE0E0DF01DED5EA2BFB2BE2D5E2E0E0936401E5D5E8D59DC0E23049F4AE
:2001C000E1E4F1E2D7D518D2E1E0E0936601E8E090C0E33021F4DDD5BCD4E0D58AC0E430C1
:2001E00021F4D7D57ED4DAD584C0E53089F5A0D5D9F4A0916501A33048F4E0916501EF5F59
:20020000E0936501E6E0E09363010CC0D0D5DBD1D1D5A0916401A23011F4E0E001C0E8E0EF
:20022000E093670146D413C0E1E0E51581F4E8E1F5E1E0936901F0936A015524BFD5C1D5B9
:20024000B1D1B8D5E8E0E093670133D4D5D153C0E630C1F4A0916501A23051F4A0916D0114
:20026000B0916E01A130E0E0BE0709F4ADD509C0A0916F01B0917001A130E0E0BE0709F48A
:20028000A3D539C0E73049F4E0918401E03021F4E0916701E09363012EC0E83039F55BD56A
:2002A00021F15DD511F4E1E011C0E43011F4E5E00DC0E83011F4EDE009C0E03211F4EEE020
:2002C00005C0E03111F4EAE001C0EFEFE0936401A0916401AF3F49F0E0916601E03019F054
:2002E00050D530D501C070D550D505C0E3E03ED5E0E0E093630122D571F4E0916901F091BF
:200300006A013197E0936901F0936A01309711F41DD501C05DD5B8CEFFCFF894EEE2E7BBDC
:20032000E2E0E8BBE8EFE1BBE2BBE0E0E4BBEFE3E5BB68D024D1B9D04ED077D22BD04424F7
:20034000E0E0E0936B01E0936C0142D5ECE2F1E0E0936901F0936A01DDD4E3D4F3D45CD43E
:20036000E2E0E0936301E3E0E5BFE0E4EABFEBBF78940895EA93E1E05E2EE9911895F89440
:2003800035D1E881F981309719F0FA93EA933AD1C198FFCFE1E0E8BFE9BFE4E0E3BF1CD501
:2003A0000895EA93EFB7EA9317D5E0E14E2AE991EFBFE9911895A0E0B0E0B9D50895A1E0D0
:2003C000B0E0B5D50895A2E0B0E0B1D50895A0E4B0E0A9D508950A93E9E5EDB90EB10FB172
:2003E00000E0C29A099108950A93F894E981EFB9EEB1E078E038E1F70EB10FB17894E02FCE
:2004000008814DC3E7E4E7B9EEE0E6B9B89AC098EFEFF3E0E0937101F0937201E4E4F6E196
:20042000E0937301F09374010895E0917301F09174013196E0937301F0937401A09173011A
:20044000B0917401AF36E7E1BE0719F4C09A379A10C0A0917301B0917401A037E7E1BE07AD
:2004600040F0E0E0E0937301E0937401E6B1E06CE6B90895EA93FA93EFB7EA93E4B1F5B136
:20048000E0937101F0937201E6B1EF73E6B9C098E991EFBFF991E9911895A0917101B091D4
:2004A0007201ECE1F2E039D5089599D4E09375019AD4E1E0E09377019AD408954CD51FEFD5
:2004C000E0917601EF5FE0937601E3B3EF73AFE3EA270E2FE0917801E030E1F0013069F4CB
:2004E000EF5FE0937801A0917801E8ECEA1720F47ED481D4E1E141C00DC0093029F47FD44F
:2005000011F4E2E13AC006C072D479D411F4E1E034C071D478D431F466D4003019F45FD4A6
:20052000E093770170D421F0A0917601A33008F423C059D400937501E0917901E030E1F41B
:20054000013021F4E1E0E093780113C0023011F412E00FC0043011F414E00BC0083011F4A8
:2005600018E007C0003211F410E203C0003109F410E1E1E0E0937901E12FF7D4089547D470
:2005800006D148D41ED41BD1E0E0E0937A01E0937B0143D446D449D453D4089512D40FD115
:2005A00044D40895E98150D451D439F4EBE4F0E0E0938201F09383014CD4E0E0E0937E0138
:2005C000E0937F016CC2E8813FD4E881E0938101E4E6F0E0E0937E01F0937F013ED4E0E0BF
:2005E000E0938201E093830134D41DC110D4E7D0E8D3E5D00FD40895E1E0E0937D0108954E
:2006000010D408952297A3D4E985F070EE83FF8300E010E026D428F520E030E02032EEE44D
:200620003E0720F423D42F5F3F4FF8CFC0D3AFD020E030E02033E5E73E0720F417D42F5F74
:200640003F4FF8CFB4D3BBD020E030E02033E5E73E0720F40BD42F5F3F4FF8CF0F5F1F4F0D
:20066000D9CFE885F985F070EE83FF8300E010E0F8D328F520E030E02032EEE43E0720F44F
:20068000F5D32F5F3F4FF8CF99D381D020E030E02033E5E73E0720F4E9D32F5F3F4FF8CFCB
:2006A0008DD38DD020E030E02033E5E73E0720F4DDD32F5F3F4FF8CF0F5F1F4FD9CF4ED4BC
:2006C0002A960895D9D3D9F0E0917E01F0917F013197E0937E01F0937F01CED369F0E0912F
:2006E0008001E150E0938001E03029F4E0918101EA937DD0B2D302C064D3C4D30FC0C4D3EF
:2007000069F0E0918201F09183013197E0938201F0938301B9D311F454D3B4D3E0917D0194
:20072000E03019F074D333D00AC0E0917C01E150E0937C01E03019F46AD359D06ED3ADDE2E
:20074000E03019F1E0917A01F0917B013196E0937A01F0937B01A0917A01B0917B01A83E93
:20076000E3E0BE0728F0E0E0E0937A01E0937B01A0917A01B0917B01AA30E0E0BE0718F468
:20078000E0E062D301C046D301C044D3089582D311F4979813C081D311F496980FC080D310
:2007A00011F495980BC07FD311F4949807C07ED311F04CD319F4E2B3EF79E2BB34C06AD3A9
:2007C00011F4979A13C069D311F4969A0FC068D311F4959A0BC067D311F4949A07C066D329
:2007E00011F034D319F4E2B3E066E2BB1CC052D319F4E2B3A0E815C050D319F4E2B3A0E423
:2008000010C04ED319F4E2B3A0E20BC04CD319F4E2B3A0E106C04AD311F018D321F4E2B33D
:20082000A0E6EA27E2BB21960895E5E5E0938701E0938801E0938901E5E8E0938A01E09334
:200840008B01E0938C01E5E8F1E833D3EFE1F2E830D3E0EFF3E82DD3E0E0F4E82AD3E0E0B0
:20086000F5E827D3E1ECFEE824D3E0E0FFE821D3E0E0F0E91ED3E0E0F1E91BD3E0E0F2E9AF
:2008800018D3E8E8F9E815D314D10895E881F981E0938501F0938601E134A1E2FA0769F476
:2008A000EFE0F7E806D3E0EAF8E803D3E6EAFAE800D3E8E2FBE8FDD2F2C0E234A1E2FA07E4
:2008C00059F4E0EFF7E8F5D2E0E6F8E8F2D2EDEAFAE8EFD2F1D2E3C0E334A1E2FA0759F424
:2008E000E8EFF7E8E6D2E0E3F8E8E3D2E9EBFAE8E0D2E5D2D4C0E434A1E2FA0769F4E0E0C6
:20090000F7E8D7D2E0E0F8E8D4D2E5ECFAE8D1D2E8E6FBE8CED2C3C0E134A2E2FA0769F4E8
:20092000E7E0F7E8C6D2E0EDF8E8C3D2EDECFAE8C0D2E8E3FBE8BDD2B2C0E234A2E2FA07A0
:2009400069F4EFE1F7E8B5D2E0E4F8E8B2D2E8EDFAE8AFD2E0EFFBE8ACD2A1C0E334A2E278
:20096000FA0769F4E7E2F7E8A4D2E0E1F8E8A1D2E4EEFAE89ED2E8EAFBE89BD290C0E43439
:20098000A2E2FA0769F4EEE2F7E893D2E0EEF8E890D2ECEEFAE88DD2E8E7FBE88AD27FC0E9
:2009A000E134A3E2FA0769F4E6E3F7E882D2E0EBF8E87FD2E8EFFAE87CD2E0E3FBE879D24F
:2009C0006EC0E234A3E2FA0759F4EEE3F7E871D279D2E3E0FAE86DD2E8EEFBE86AD25FC0CA
:2009E000E334A3E2FA0759F4E1ECF7E862D26AD2EBE0FAE85ED2E8EBFBE85BD250C0E43409
:200A0000A3E2FA0769F4E9ECF7E853D2E0E5F8E850D2E7E1FAE84DD2E0E7FBE84AD23FC0C5
:200A2000E134A4E2FA0769F4E5EBF7E842D2E8ECF8E83FD2EFE1FAE83CD2E0E4FBE839D2C3
:200A40002EC0E234A4E2FA0759F4E1EDF7E831D2E0E2F8E82ED2EAE2FAE82BD22DD21FC0E3
:200A6000E334A4E2FA0759F4E0EEF7E822D2E0ECF8E81FD2E6E3FAE81CD221D210C0E434D9
:200A8000A4E2FA0761F4E8EDF7E813D2E0EFF8E810D2EEE3FAE80DD2E0E8FBE80AD222967F
:200AA0000895939AE0EFF6E804D293980895939A0895939AE0E3F6E8FCD1939808950A9357
:200AC000E981FA81E070EF2FF0E00E2FC298FDD10981FBD1EFEFEA9387DCC29A08812396DC
:200AE000089535D2E0E9F1E0F2D1E0E9F1E0FF93EF93F2D1AF91BF91EC93EDE8F1E030811E
:200B000027E0E9E0E21738F0EBD1E957FE4FE0813E0F2F5FF6CF30939101E0918D01E3D192
:200B20005369E5D1E0918E01DED15469E0D1E0918F01D9D15569DBD1E0919001D4D15669AB
:200B4000D6D1AFDF07E811E01A930A93AED0AFDF60C0FDD1E5E5E0939201E0939301E093F2
:200B60009401E0939501E0939601E0939701E0918A01E0939801E0918B01E0939901E0913F
:200B80008C01E0939A01E0918D01E0939B01E0918E01E0939C01E0918F01E0939D01E09119
:200BA0009001E0939E01EEE9F1E091D1EEE9F1E0FF93EF9391D1AF91BF91EC93EBE9F1E0B6
:200BC00030812AE0ECE0E21738F08AD1EE56FE4FE0813E0F2F5FF6CF30939F01E0919B0110
:200BE00082D1536984D1E0919C017DD154697FD1E0919D0178D155697AD1E0919E0173D173
:200C0000566975D14EDF02E911E01A930A9343D04EDFA4D1279608959AD1CDDB0E2FCFDB73
:200C20001E2FD1DB2E2FE02F8ED1E87F3E2FE12FE295EF70E695E4703E2B5CD13E2B3093A5
:200C40008D01E12FEE0FEC7F3E2F54D13E2B30938E01E12FE295E07FEE0FEE0FEE0FE0780C
:200C60003E2FE22FE695EC773E2B44D13E2B30938F01E22FE295E07FEE0FE07E3E2FE32F1D
:200C8000E695E071A0E1EA275E2F352B3093900165D1269608953CD1899AF894A881B98107
:200CA00068E07EE009C02296089532D1899AF894A881B98168E07BE08C91119687FF05C0A9
:200CC000000000000000919A05C000000000919800000000615071F0880F00000000000052
:200CE000000000000000000000000000000000000000E4CF715039F068E00000000000000F
:200D000000000000D9CF789495E09150F1F7899822960895E4E0F0E0E0936D01F0936E0104
:200D20000895E5E0F0E0E0936F01F09370010895E0916B01F0916C0130970895E091680104
:200D4000E0300895E0E0E09366010895E0E0F0E0FA93EA9314CBA0916201AF3F0895E091A6
:200D60006201E2300895E02FF0E00895EA93E0E0EA9318CCE0936001F0936101FA93EA9384
:200D800085CDE3E0E09363010895E1E0E0936501089504DCE0916401EA9308955524E1E089
:200DA000F0E0E0936B01F0936C01E5E00895E3E0EA930895E7E0E09363010895E2E0EA93DB
:200DC0000895E1E0EA930895E4E0E09363010895E4E6E09368010895E3E6E2BF0895E0E059
:200DE000E09379010895E0E0E09376010895E0E0E09378010895E0E0E09377010895E09120
:200E00007701E0300895A09175010A170895E5E0EA930895E0E0EA93D2CCE2E3E0937C01D9
:200E20000895E0E0E0937D010895E0E0E0937E01E0937F01E0E0E0938201E09383010895D8
:200E4000E0E0E09384010895EA93A1CCA881A1300895E1E0E09384010895EAE0E0938001A8
:200E60000895EE81FF810E171F070895E22FF32F31964E2F5F2F0895E0917E01F0917F016B
:200E8000309708959CDCDCCFE0918201F091830130970895A881A5300895A881A33008953A
:200EA000A881A2300895E881E0300895A881A4300895FA93EA9303CEE8EFFBE8FACFE0EBC1
:200EC000FBE8F7CFE0E8F8E8F4CF0A938DCADF01EC91E07FEC930895E081AE81EA2B0895F0
:200EE000E22FF0E00895F0E04E2F5F2F08955A934A93E5CDE32FE695E695E1704E2FE42F97
:200F0000EE0FE270A2E0EA275E2FE52FE42B0895E881F981E883F9830895AE17BF07E1E0EF
:200F200008F0EE270895119602D0FE2F1197E199FECFFF93FFB7F894AEBBBFBBE09AEDB3A1
:200F4000FFBFFF910895EE0FEE0FEE0F08955A934A933A932A931A930A9308955D814C812C
:100F60003B812A8119810881089509911991089579
:00000001FF
